:100000000C9434000C943E000C943E000C943E0082
:100010000C943E000C943E000C943E000C943E0068
:100020000C943E000C943E000C943E000C943E0058
:100030000C943E000C943E000C943E000C943E0048
:100040000C943E000C943E000C943E000C943E0038
:100050000C943E000C943E000C943E000C943E0028
:100060000C943E000C943E0011241FBECFEFD8E04C
:10007000DEBFCDBF0E9467000C94F5010C94000018
:1000800088BD67BD2D9A80E090E050E08417950709
:100090005CF43FEF62EA72E0315060407040E1F79B
:1000A00000C000000196F2CF2D9880E090E030E093
:1000B000821793075CF44FEF52EA62E041505040E0
:1000C0006040E1F700C000000196F2CF089583EA96
:1000D00084BD8DE085BD559A259A2D9A22E042E097
:1000E0006DE280E00E94400020E044E064E483E0B0
:1000F0000E94400021E043E06AE382E00E94400069
:1001000020E044E06DE281E00E94400021E043E015
:1001100062E280E00E94400020E044E06BE283E085
:100120000E94400021E043E063E382E00E9440003F
:1001300020E044E06CE381E00E94400021E043E0E5
:1001400063E380E00E94400020E044E068E483E054
:100150000E94400021E043E06BE282E00E94400008
:1001600020E044E06DE281E00E94400021E043E0B5
:1001700063E380E00E94400020E044E06AE383E023
:100180000E94400021E043E064E482E00E944000DD
:1001900020E044E06BE581E00E94400021E043E084
:1001A0006DE480E00E94400020E044E066E583E0EA
:1001B0000E94400021E043E06DE282E00E944000A6
:1001C00020E044E063E381E00E94400021E043E05E
:1001D0006AE380E00E94400020E044E06CE383E0BA
:1001E0000E94400021E043E063E382E00E9440007F
:1001F00020E044E06BE281E00E94400021E043E027
:1002000064E480E00E94400020E044E06BE583E08D
:100210000E94400021E043E06CE382E00E94400045
:1002200020E044E06BE581E00E94400021E043E0F3
:1002300066E680E00E94400021E043E064E783E05E
:100240000E94400021E043E064E482E00E9440001C
:1002500021E043E068E781E00E94400021E043E0C4
:100260006CE380E00E94400020E044E06AE383E029
:100270000E94400021E043E06BE582E00E944000E4
:1002800020E044E068E881E00E94400021E043E093
:1002900068E780E00E94400020E044E064E783E0FB
:1002A0000E94400021E043E066E682E00E944000B8
:1002B00020E044E06BE581E00E94400021E043E063
:1002C00066E580E00E94400020E044E06DE483E0C9
:1002D0000E94400021E043E064E782E00E94400089
:1002E00020E044E06BE581E00E94400021E043E033
:1002F0006DE480E00E94400020E044E06AE383E097
:100300000E94400021E043E063E382E00E9440005D
:1003100020E044E06DE281E00E94400021E043E003
:100320006DE480E00E94400020E044E064E483E06B
:100330000E94400021E043E066E582E00E94400028
:1003400020E044E064E481E00E94400021E043E0DA
:100350006AE380E00E94400020E044E06BE283E03A
:100360000E94400021E043E064E482E00E944000FB
:1003700020E044E066E581E00E94400021E043E0A7
:1003800066E680E00E94400020E044E068E783E009
:100390000E94400021E043E066E682E00E944000C7
:1003A00020E044E06DE481E00E94400021E043E071
:1003B0006BE280E00E94400020E044E06DE283E0D8
:1003C0000E94400021E043E064E782E00E94400098
:1003D00020E044E066E581E00E94400021E043E047
:0E03E00063E380E00E94400079CEF894FFCFE6
:00000001FF
