:100000000C9434000C943E000C943E000C943E0082
:100010000C943E000C943E000C943E000C943E0068
:100020000C943E000C943E000C943E000C943E0058
:100030000C943E000C943E000C943E000C943E0048
:100040000C943E000C943E000C943E000C943E0038
:100050000C943E000C943E000C943E000C943E0028
:100060000C943E000C943E0011241FBECFEFD8E04C
:10007000DEBFCDBF0E94D5000C9447030C94000056
:1000800088BD67BD2D9A80E090E050E08417950709
:100090005CF43FEF67E572E0315060407040E1F79B
:1000A00000C000000196F2CF2D9880E090E030E093
:1000B000821793075CF44FEF57E562E041505040E0
:1000C0006040E1F700C000000196F2CF0895EF9282
:1000D0000F9388BD67BD2D9AE0E0F0E050E0E41793
:1000E000F5077CF43FEF77E592E0315070409040A7
:1000F000E1F700C0000088BD67BD3196800F6E0D2E
:10010000EECF2D9880E090E030E0821793075CF40A
:100110004FEF57E562E0415050406040E1F700C0CA
:1001200000000196F2CF0F91EF900895CF92EF92D9
:10013000FF920F9388BD67BD2D9AE0E0F0E0F12CAF
:10014000EE15FF0564F567BD3FEF57E592E03150CE
:1001500050409040E1F700C0000047BD3FEF57E539
:1001600092E0315050409040E1F700C0000027BDC0
:100170003FEF57E592E0315050409040E1F700C02A
:10018000000007BD3FEF57E592E0315050409040EE
:10019000E1F700C0000088BD31968C0DD1CF2D98BD
:1001A0000F91FF90EF90CF90089583EA84BD8CE08B
:1001B00085BD559A259A2D9A9CEFE92E01E022E003
:1001C0004EE06FEF84E00E946700C2E0D0E0CC24F4
:1001D000C3940CE0E02E0FE723EA40EC6FEF82E0DF
:1001E0000E949600CC24CA9484E0E82E04E721E91A
:1001F0004CEA68EE80E10E949600219741F7CC24FA
:10020000C3945CE0E52E0DE62FE743EA6AED82E059
:100210000E949600CC24CA9464E0E62E04E721E90B
:100220004CEA68EE80E10E949600CC24C39478E00A
:10023000E72E0FE723EA40EC6FEF84E00E94960080
:10024000CC24CA9423EA40EC6FEF80E10E94960030
:10025000CC24C394ECE0EE2E01E520E64FE760EC01
:1002600082E00E949600F4E0EF2E00E62FE743EADA
:1002700060EC80E10E949600ACE0EA2E08E426E5FE
:1002800044E76CEA82E00E949600CC24CA94B4E071
:10029000EB2E01E52DE64FE763EA80E10E94960030
:1002A000C12C0FE32DE64FE763EA88E00E94960039
:1002B0000CE32DE64FE763EA88E00E949600CC2429
:1002C000CA94C6E0EC2E08E424E741E96CEA88E031
:1002D0000E949600CC24C394D2E0ED2E01E524E7E1
:1002E00041E96CEA82E00E94960000E1E02E0FE313
:1002F00023EA40EC6FEF84E00E9496008CE0E82E49
:100300000DE628E843EA6AED82E00E949600CC24DC
:10031000CA9494E0E92E00E628E741E96AED80E11D
:100320000E949600CC24C3942CE0E22E0DE628E82F
:1003300043EA6AED82E00E949600CC24CA9434E03D
:10034000E32E00E628E741E96AED80E10E9496008D
:10035000CC24C3944CE0E42E0BE52DE648E866EB94
:1003600082E00E949600CC24CA9454E0E52E01E578
:100370002DE648E866EB80E10E949600CC24C39409
:1003800068E0E62E0DE621E940EC68EE84E00E948C
:100390009600CC24CA9404E721E940EC68EE80E1A1
:1003A0000E949600CC24C3947CE0E72E0DE628E85A
:1003B00043EA6AED82E00E949600E12C01E020E031
:1003C00044E063EA82E00E94670020E044E068E8DD
:1003D00082E00E946700EE24E39422E042E06AEDAE
:1003E00082E00E946700E2E0CE2EF4E0EF2E0BE503
:1003F00028E743EA60EF84E00E949600AEEFCA2E41
:1004000000E628E743EA60EF80E10E949600E12CD5
:1004100000E020E040E168E784E00E94670020E01F
:1004200040E161E980E10E946700B4E0CB2EC0E1C9
:10043000EC2E0DE621E946EB6AED84E00E94960081
:10044000C12CD0E2ED2E21E946EB6AED80E30E945B
:100450009600C2E0D0E04BEFE42E0EEF29E043E03F
:100460006FEF82E30E94670021E043E06FEF82E3D9
:100470000E94670025E043E06FEF82E30E9467007F
:1004800029E043E06FEF82E30E94670021E043E050
:100490006FEF82E30E94670025E043E06FEF82E3A5
:1004A0000E9467002DE043E06FEF82E30E94670047
:1004B000219789F622E046E06AE984E00E94400044
:1004C00020E044E068E882E00E944000E12C08E07F
:1004D00028E044E063EA83E00E94670024E044E00F
:1004E00061EA82E00E94400022E042E06CEA82E0A1
:1004F0000E94400022E042E06CEA83E00E9440005B
:1005000022E046E06CEA84E00E94400020E048E0FF
:1005100066EB83E00E9440008CEFE82E00E020E0D4
:1005200048E066EB82E00E94670022E046E06CEA69
:1005300084E00E94400020E044E06AE982E00E94FA
:100540004000E12C08E028E044E066EB83E00E94F4
:10055000670024E044E064EB82E00E94400022E077
:1005600042E060EC82E00E94400022E042E060EC69
:1005700083E00E94400022E046E060EC84E00E94BC
:10058000400020E048E06DEC83E00E94400098E0ED
:10059000E92E00E020E048E06DEC82E00E94670078
:1005A00022E046E06DE484E00E94400020E044E068
:1005B00064E482E00E944000E12C08E028E044E08E
:1005C00061E583E00E94670024E044E06FE482E09C
:1005D0000E94400022E042E066E582E00E94400086
:1005E00022E042E066E583E00E94400022E046E02F
:1005F00066E584E00E94400020E048E06BE583E08F
:100600000E9440002CEFE22E00E020E048E06BE585
:1006100082E00E94670022E046E066E584E00E94F6
:10062000400020E044E06DE482E00E944000E12CC4
:1006300008E028E044E06BE583E00E94670024E0E6
:1006400044E069E582E00E94400022E042E060E68A
:1006500082E00E94400022E042E060E683E00E94E7
:10066000400022E046E060E684E00E94400020E096
:1006700044E066E683E00E94400034E0E32E00E0C0
:1006800020E04CE066E682E00E94670013CFF89419
:02069000FFCF9A
:00000001FF
