:100000000C9434000C9451000C9451000C94510049
:100010000C9451000C9451000C9451000C9451001C
:100020000C9451000C9451000C9451000C9451000C
:100030000C9451000C9451000C9451000C945100FC
:100040000C9451000C9451000C9451000C945100EC
:100050000C9451000C9451000C9451000C945100DC
:100060000C9451000C94510011241FBECFEFD8E026
:10007000DEBFCDBF12E0A0E0B1E0E6EEF3E002C0EB
:1000800005900D92A035B107D9F722E0A0E5B2E0C6
:1000900001C01D92A235B207E1F70E9461000C94E5
:1000A000F1010C94000085B5846085BD089585B587
:1000B0008E7F85BD85B58D7F85BD85B58B7F85BDE3
:1000C000089581EA84BD88E085BD559A259A2D9AC8
:1000D000E0915002F0915102E050FF4F8081813059
:1000E00009F453C0E0F0823009F48BC0833009F08A
:1000F0006BC1D184C0841381B280E780F680058112
:10010000C481D181D8BDC7BD0E9453008C2F40E06F
:1001100050E02B2D30E00C1BFC1AEC1AE5C0C3811B
:10012000D2818481918198BD87BD0E94530020E0D7
:1001300030E08D2F90E02817390764F44FEF57E532
:1001400062E0415050406040E1F700C000002F5F86
:100150003F4FF1CF0E94570020E030E08C2F90E01D
:100160002817390764F47FEF47E552E071504040AB
:100170005040E1F700C000002F5F3F4FF1CF80916A
:1001800050029091510205961BC1F680E5801381C3
:100190000281C481D181D8BDC7BD0E94530020E037
:1001A00030E0802F90E02817390784F46FEF77E56F
:1001B00042E0615070404040E1F700C00000D8BD0F
:1001C000C7BD2F5F3F4FDE0DCF0DEDCF0E94570013
:1001D00020E030E0812F90E02817390764F45FEFCA
:1001E00067E572E0515060407040E1F700C00000E8
:1001F0002F5F3F4FF1CF80915002909151020796AF
:10020000DFC0C381D2810781F680E58014818181BE
:1002100088BD17BD0E94530020E030E08D2F90E094
:10022000281739075CF517BD4FEF57E562E04150DD
:1002300050406040E1F700C00000E7BC7FEF47E5B9
:1002400052E0715040405040E1F700C00000F7BC60
:100250006FEF77E542E0615070404040E1F700C049
:10026000000007BD5FEF67E572E0515060407040ED
:10027000E1F700C000002F5F3F4FD2CF0E94570030
:1002800020E030E08C2F90E0281739073CF54FEF45
:1002900057E562E0415050406040E1F700C0000087
:1002A0007FEF47E552E0715040405040E1F700C019
:1002B00000006FEF77E542E0615070404040E1F7A9
:1002C00000C000005FEF67E572E051506040704091
:1002D000E1F700C000002F5F3F4FD6CF8091500262
:1002E0009091510208966CC042175307A4F5D8BDEF
:1002F00087BD9FEF67E572E0915060407040E1F785
:1003000000C00000902F980F97BD9FEF67E572E047
:10031000915060407040E1F700C000009F2D980FA1
:1003200097BD9FEF67E572E0915060407040E1F744
:1003300000C000009E2D980F97BD9FEF67E572E00B
:10034000915060407040E1F700C000004F5F5F4F88
:10035000DC0D8D0DC9CF0E94570020E030E0812FC9
:1003600090E0281739073CF54FEF57E562E0415020
:1003700050406040E1F700C000007FEF47E552E0E9
:10038000715040405040E1F700C000006FEF77E54A
:1003900042E0615070404040E1F700C000005FEF74
:1003A00067E572E0515060407040E1F700C0000026
:1003B0002F5F3F4FD6CF80915002909151020A9605
:1003C000909351028093500280915002909151027B
:1003D0008F34914008F47CCE10925102109250025A
:0603E00077CEF894FFCF78
:1003E60003010C00FFC0A37F010003080400E8AC72
:1003F6009174FF0003010C00FFC0A37F01000310EE
:100406000400E8AC9174FF0003020C00DAA37F6DD0
:10041600010003100400E8AC9174FF000304080017
:10042600FFC0A37F010003100800FFC0A37FFF00E9
:1004360003020C00C07F6051010003100400C0A33A
:100446007F60010003020C00AC74564801000310E3
:100456000400A37F6D51FF0003080400A37F6D3FD6
:10046600000003080400A37F6D3C0000030806009B
:10047600AC917448FF0003020200AC917451010074
:1004860003041000FFC0A33F010003020C00DAA31F
:10049600886D010003100400C0917860FF0003021C
:1004A6000C00DAA3886D010003100400C091786087
:1004B600FF0003020C00B6886D6D010003100400F6
:1004C600B6886D74FF0003040800E8C0916D010052
:1004D60003100800E8C09174FF0003020C00DAA3C1
:1004E600886D010001020400A301000102040088D6
:1004F600010001020202DA010103040400F0A378FC
:100506005B010003100400F0A37860FF00010410F3
:100516000078010001100F0191FF0003041000DABA
:10052600B6486D010003302000DAB6486DFF0000C2
:00000001FF
