:100000000C9434000C9451000C9451000C94510049
:100010000C9451000C9451000C9451000C9451001C
:100020000C9451000C9451000C9451000C9451000C
:100030000C9451000C9451000C9451000C945100FC
:100040000C9451000C9451000C9451000C945100EC
:100050000C9451000C9451000C9451000C945100DC
:100060000C9451000C94510011241FBECFEFD8E026
:10007000DEBFCDBF12E0A0E0B1E0ECEEF3E002C0E5
:1000800005900D92A035B107D9F722E0A0E5B2E0C6
:1000900001C01D92A235B207E1F70E9461000C94E5
:1000A000F4010C94000085B5846085BD089585B584
:1000B0008E7F85BD85B58D7F85BD85B58B7F85BDE3
:1000C000089583EA84BD88E085BD559A259A2D9AC6
:1000D000E0915002F0915102E050FF4F8081813059
:1000E00009F451C0D0F0823009F489C0833009F09E
:1000F0006EC10185F084D381B280E780D680C5804F
:100100001481C181C8BD17BD0E94530090E040E03A
:1001100050E080E02B2D30E0E5C0C381D2818481A6
:10012000918198BD87BD0E94530020E030E08D2F63
:1001300090E02817390764F44FEF57E562E041502B
:1001400050406040E1F700C000002F5F3F4FF1CF0B
:100150000E94570020E030E08C2F90E028173907EC
:1001600064F47FEFE7E5F2E07150E040F040E1F742
:1001700000C000002F5F3F4FF1CF8091500290915F
:100180005102059620C1F680E58013810281C48169
:10019000D181D8BDC7BD0E94530020E030E0802F40
:1001A00090E02817390784F44FEF57E562E041509B
:1001B00050406040E1F700C00000D8BDC7BD2F5FD0
:1001C0003F4FDE0DCF0DEDCF0E94570020E030E015
:1001D000812F90E02817390764F47FEFE7E5F2E01C
:1001E0007150E040F040E1F700C000002F5F3F4F4A
:1001F000F1CF80915002909151020796E4C0C381E3
:10020000D2810781F680E5801481818188BD17BD88
:100210000E94530020E030E08D2F90E0281739072E
:100220005CF517BD4FEF57E562E04150504060402C
:10023000E1F700C00000E7BC7FEFE7E5F2E07150B6
:10024000E040F040E1F700C00000F7BC4FEF57E599
:1002500062E0415050406040E1F700C0000007BD3F
:100260007FEFE7E5F2E07150E040F040E1F700C0D9
:1002700000002F5F3F4FD2CF0E94570020E030E0B8
:100280008C2F90E0281739073CF54FEF57E562E0D7
:10029000415050406040E1F700C000007FEFE7E5CB
:1002A000F2E07150E040F040E1F700C000004FEF95
:1002B00057E562E0415050406040E1F700C0000067
:1002C0007FEFE7E5F2E07150E040F040E1F700C079
:1002D00000002F5F3F4FD6CF809150029091510286
:1002E000089671C0602F690F42175307BCF5712F34
:1002F000780F77BD7FEFE7E5F2E07150E040F04026
:10030000E1F700C000007C2D780F77BD7FEFE7E5B7
:10031000F2E07150E040F040E1F700C000007D2DB8
:10032000780F77BD7FEFE7E5F2E07150E040F040F5
:10033000E1F700C000007E2D780F77BD7FEFE7E585
:10034000F2E07150E040F040E1F700C00000C8BDAD
:10035000890F4F5F5F4FCF0D962FC4CF0E9457007C
:1003600020E030E08D2F90E0281739073CF54FEF63
:1003700057E562E0415050406040E1F700C00000A6
:100380007FEFE7E5F2E07150E040F040E1F700C0B8
:1003900000004FEF57E562E0415050406040E1F708
:1003A00000C000007FEFE7E5F2E07150E040F04070
:1003B000E1F700C000002F5F3F4FD6CF8091500281
:1003C000909151020A96909351028093500280912D
:1003D0005002909151028F34914008F479CE1092DE
:0C03E00051021092500274CEF894FFCF2E
:1003EC0003020C00FFC0A37F010003100400E8AC63
:1003FC009174FF0003020C00FFC0A37F01000310E7
:10040C000400E8AC9174FF0003020C00DAA37F6DCA
:10041C00010003100400E8AC9174FF000304080011
:10042C00FFC0A37F010003100800FFC0A37FFF00E3
:10043C0003020C00C07F6051010003100400C0A334
:10044C007F60010003020C00AC74564801000310DD
:10045C000400A37F6D51FF0003080400A37F6D3FD0
:10046C00000003080400A37F6D3C00000308060095
:10047C00AC917448FF0003020200AC91745101006E
:10048C0003041000FFC0A33F010003020C00DAA319
:10049C00886D010003100400C0917860FF00030216
:1004AC000C00DAA3886D010003100400C091786081
:1004BC00FF0003020C00B6886D6D010003100400F0
:1004CC00B6886D74FF0003040800E8C0916D01004C
:1004DC0003100800E8C09174FF0003020C00DAA3BB
:1004EC00886D010001020400A301000102040088D0
:1004FC00010001020202DA010103040400F0A378F6
:10050C005B010003100400F0A37860FF00010410ED
:10051C000078010001100F0191FF0003041000DAB4
:10052C00B6486D010003302000DAB6486DFF0000BC
:00000001FF
