:1000000083EA84BD8CE085BD559A259A2D9A84E0BB
:1000100088BD8FEF87BD2D9A9FEF84E00FEF17E526
:1000200022E0015010402040E1F700C0000088BDF0
:1000300097BD8F5F9450823189F72D983FEF47E548
:1000400052E0315040405040E1F700C000006FEFF7
:1000500077E582E0615070408040E1F700C0000029
:1000600022E030E052E09FEF60EC73EAEFE7F0E16E
:1000700048EEACEAB1E9C4E758BD97BD2D9A82E0DD
:1000800097BDDFEF07E512E0D15000401040E1F7E7
:1000900000C0000067BDDFEF07E512E0D15000406F
:1000A0001040E1F700C0000077BDDFEF07E512E088
:1000B000D15000401040E1F700C00000E7BDDFEF85
:1000C00007E512E0D15000401040E1F700C0000009
:1000D00088BD8F5F8E30A1F62D98F8BD47BD2D9A53
:1000E00080E147BDDFEF07E512E0D150004010404E
:1000F000E1F700C00000A7BDDFEF07E512E0D15037
:1001000000401040E1F700C00000B7BDDFEF07E599
:1001100012E0D15000401040E1F700C00000C7BD20
:10012000DFEF07E512E0D15000401040E1F700C0DA
:10013000000088BD81508C30A1F62D9821503109E6
:1001400009F09ACF82E088BD8AED87BD2D9A82E0C2
:100150004AED33EA2FE79DE647BD5FEF67E572E0C2
:10016000515060407040E1F700C0000037BDAFEF74
:10017000B7E5C2E0A150B040C040E1F700C00000C8
:1001800027BDDFEFE7E5F2E0D150E040F040E1F7D6
:1001900000C0000097BD0FEF17E552E0015010407E
:1001A0005040E1F700C0000088BD8F5F8E30A1F69F
:1001B0002D9880E188BD88EE87BD2D9A80E148EEBC
:1001C0003CEA21E994E747BD6FEF77E5A2E0615093
:1001D0007040A040E1F700C0000037BDBFEFC7E5A9
:1001E000D2E0B150C040D040E1F700C0000027BDD0
:1001F000EFEFF7E502E0E150F0400040E1F700C02A
:10020000000097BD1FEF57E562E01150504060407D
:10021000E1F700C0000088BD81508C30A1F62D9818
:1002200084E088BD8FEF87BD2D9A84E04FEF30ECDE
:1002300023EA9FE747BD7FEFA7E5B2E07150A040FA
:10024000B040E1F700C0000037BDCFEFD7E5E2E0F6
:10025000C150D040E040E1F700C0000027BDFFEFF3
:1002600007E512E0F15000401040E1F700C0000047
:1002700097BD5FEF67E572E0515060407040E1F775
:1002800000C0000088BD8F5F8C30A1F62D9880E102
:1002900088BD8FEF87BD2D9A80E14FEF30EC23EAC8
:1002A0009FE747BDAFEFB7E5C2E0A150B040C04007
:1002B000E1F700C0000037BDDFEFE7E5F2E0D15025
:1002C000E040F040E1F700C0000027BD0FEF17E568
:1002D00052E0015010405040E1F700C0000097BDCF
:1002E0006FEF77E5A2E061507040A040E1F700C0F9
:1002F000000088BD81508830A1F62D9892E098BD0D
:1003000090EC97BD2D9A92E050EC4FE730E621E556
:1003100057BDBFEFC7E5D2E0B150C040D040E1F7D4
:1003200000C0000047BDEFEFF7E502E0E150F0400C
:100330000040E1F700C0000037BD1FEF67E572E045
:10034000115060407040E1F700C0000027BDAFEFE2
:10035000B7E5C2E0A150B040C040E1F700C00000E6
:1003600098BD9F5F9E30A1F62D9890E198BD90ECCE
:1003700097BD2D9A90E150EC43EA3FE720E657BD48
:10038000DFEFE7E5F2E0D150E040F040E1F700C0F8
:10039000000047BD0FEF17E562E0015010406040DC
:1003A000E1F700C0000037BD7FEFA7E5B2E0715074
:1003B000A040B040E1F700C0000027BDCFEFD7E577
:1003C000E2E0C150D040E040E1F700C0000098BD3D
:1003D0009F5F9431A1F62D9892E098BD9CEA97BD5D
:1003E0002D9A92E05CEA44E736E528E457BDFFEF3A
:1003F00007E512E0F15000401040E1F700C00000B6
:1004000047BD6FEF77E5A2E061507040A040E1F793
:1004100000C0000037BDBFEFC7E5D2E0B150C0401B
:10042000D040E1F700C0000027BDEFEFF7E502E0A4
:10043000E150F0400040E1F700C0000098BD9F5F30
:100440009E30A1F62D9890E198BD93EA97BD2D9A24
:1004500090E153EA4FE73DE621E557BD1FEF67E521
:1004600072E0115060407040E1F700C0000047BDED
:10047000AFEFB7E5C2E0A150B040C040E1F700C027
:10048000000037BDDFEFE7E5F2E0D150E040F0409B
:10049000E1F700C0000027BD0FEF17E562E0015053
:1004A00010406040E1F700C0000098BD91509C30C2
:1004B000A1F62D9898E098BD93EA97BD2D9A24E077
:1004C00030E073EA6FE75DE64FE398E077BDAFEFAA
:1004D000B7E5C2E0A150B040C040E1F700C0000065
:1004E00067BDDFEFE7E5F2E0D150E040F040E1F733
:1004F00000C0000057BD0FEF17E5A2E0015010400B
:10050000A040E1F700C0000047BDBFEFC7E5D2E063
:10051000B150C040D040E1F700C0000098BD21506C
:100520003109A1F62D9898E098BD93EA97BD2D9AD0
:1005300024E030E073EA6FE75DE64CE398E077BDD6
:10054000EFEFF7E502E0E150F0400040E1F700C0D6
:10055000000067BD1FEFA7E5B2E01150A040B0401A
:10056000E1F700C0000057BDCFEFD7E5E2E0C15092
:10057000D040E040E1F700C0000047BDFFEF07E5D5
:1005800012E0F15000401040E1F700C0000098BDBB
:1005900021503109A1F62D9898E098BD9CEA97BDAD
:1005A0002D9A7CEA61E954E728E49CEA77BD3FEFA5
:1005B00047E5A2E031504040A040E1F700C0000014
:1005C00041E967BDBFEFC7E5D2E0B150C040D040C0
:1005D000E1F700C0000034E757BDEFEFF7E502E0B8
:1005E000E150F0400040E1F700C0000027BD1FEFE0
:1005F000A7E5B2E01150A040B040E1F700C0000014
:1006000088BD8150823089F62D9888BD97BD2D9A7E
:1006100097BDCFEFD7E5E2E0C150D040E040E1F731
:1006200000C0000047BDFFEF07E512E0F1500040B9
:100630001040E1F700C0000037BD2FEF57E562E042
:10064000215050406040E1F700C0000021E527BD87
:100650007FEFA7E5B2E07150A040B040E1F700C0E5
:10066000000088BD97BDCFEFD7E5E2E0C150D04094
:10067000E040E1F700C0000047BDFFEF07E512E0F2
:10068000F15000401040E1F700C0000037BD3FEFDF
:1006900047E552E0315040405040E1F700C00000D3
:1006A00027BD6FEF77E592E0615070409040E1F731
:1006B00000C0000093E098BD2D9894E098BD9FEF96
:1006C00097BD2D9A94E05FEF40EC33EA2FE357BDDE
:1006D000AFEFB7E5C2E0A150B040C040E1F700C0C5
:1006E000000047BDDFEFE7E5F2E0D150E040F04029
:1006F000E1F700C0000037BD0FEF17E562E00150E1
:1007000010406040E1F700C0000027BD7FEFA7E583
:10071000B2E07150A040B040E1F700C0000098BDC9
:100720009F5F9431A1F62D9892E098BD9AED97BD08
:100730002D9A92E05AED43EA38E82DE657BDCFEF07
:10074000D7E5E2E0C150D040E040E1F700C0000052
:1007500047BDFFEF07E512E0F15000401040E1F720
:1007600000C0000037BD6FEF77E5A2E06150704038
:10077000A040E1F700C0000027BDBFEFC7E5D2E011
:10078000B150C040D040E1F700C0000098BD9F5F6D
:100790009E30A1F62D9890E198BD9AED97BD2D9AC7
:1007A00090E15AED41E938E720E657BDEFEFF7E574
:1007B00002E0E150F0400040E1F700C0000047BD1A
:1007C0001FEF67E572E0115060407040E1F700C034
:1007D000000037BDAFEFB7E5C2E0A150B040C04068
:1007E000E1F700C0000027BDDFEFE7E5F2E0D15000
:1007F000E040F040E1F700C0000098BD91509C300F
:10080000A1F62D9892E098BD9AED97BD2D9A92E0B1
:100810005AED43EA38E82DE657BD0FEF17E562E0E1
:10082000015010406040E1F700C0000047BD7FEF7D
:10083000A7E5B2E07150A040B040E1F700C0000071
:1008400037BDCFEFD7E5E2E0C150D040E040E1F75F
:1008500000C0000027BDFFEF07E512E0F1500040A7
:100860001040E1F700C0000098BD9F5F9E30A1F6E8
:100870002D9890E198BD9AED97BD2D9A90E15AED93
:1008800041E938E720E657BD6FEF77E5A2E0615018
:100890007040A040E1F700C0000047BDBFEFC7E5D2
:1008A000D2E0B150C040D040E1F700C0000037BDF9
:1008B000EFEFF7E502E0E150F0400040E1F700C063
:1008C000000027BD1FEF67E572E0115060407040E7
:1008D000E1F700C0000098BD91509C30A1F62D9822
:1008E00092E098BD96EB97BD2D9A92E056EB48E8C2
:1008F0003DE62BE557BDAFEFB7E5C2E0A150B040F4
:10090000C040E1F700C0000047BDDFEFE7E5F2E0DF
:10091000D150E040F040E1F700C0000037BD0FEFDC
:1009200017E562E0015010406040E1F700C00000B0
:1009300027BD7FEFA7E5B2E07150A040B040E1F7DE
:1009400000C0000098BD9F5F9E30A1F62D9890E1F9
:1009500098BD96EB97BD2D9A90E156EB48E83DE6A1
:1009600021E557BDCFEFD7E5E2E0C150D040E040F0
:10097000E1F700C0000047BDFFEF07E512E0F150CE
:1009800000401040E1F700C0000037BD6FEF77E591
:10099000A2E061507040A040E1F700C0000027BD18
:1009A000BFEFC7E5D2E0B150C040D040E1F700C092
:1009B000000098BD91509C30A1F62D9894E098BD10
:1009C00098EE97BD2D9A94E058EE40EC31E92DE673
:1009D00057BDEFEFF7E502E0E150F0400040E1F7EE
:1009E00000C0000047BD1FEF67E572E01150604096
:1009F0007040E1F700C0000037BDAFEFB7E5C2E0DF
:100A0000A150B040C040E1F700C0000027BDDFEFBB
:100A1000E7E5F2E0D150E040F040E1F700C000002F
:100A200098BD9F5F9C30A1F62D9890E198BD98EEFF
:100A300097BD2D9A90E158EE40EC31E924E757BD7F
:100A40000FEF17E562E0015010406040E1F700C091
:100A5000000047BD7FEFA7E5B2E07150A040B04075
:100A6000E1F700C0000037BDCFEFD7E5E2E0C150AD
:100A7000D040E040E1F700C0000027BDFFEF07E5F0
:100A800012E0F15000401040E1F700C0000098BDB6
:100A900091509830A1F62D9892E098BD9AED97BDAF
:100AA0002D9A92E05AED43EA38E82DE657BD6FEFF4
:100AB00077E5A2E061507040A040E1F700C000007F
:100AC00047BDBFEFC7E5D2E0B150C040D040E1F72D
:100AD00000C0000037BDEFEFF7E502E0E150F04065
:100AE0000040E1F700C0000027BD1FEF67E572E09E
:100AF000115060407040E1F700C0000098BD9F5F5A
:100B00009E30A1F62D9892E098BD93EA97BD2D9A5C
:100B100092E023EAAFEFB7E5C2E0A150B040C04099
:100B2000E1F700C0000098BD27BD9F5F963091F7A8
:100B30002D9892E098BD98E897BD2D9ADFEFE7E5F4
:100B4000F2E0D150E040F040E1F700C0000088BD85
:100B500097BD8F5F863091F72D9892E098BD8AED12
:100B600087BD2D9A0FEF17E522E00150104020407D
:100B7000E1F700C0000098BD87BD3FEF47E552E0B8
:100B8000315040405040E1F700C0000083E088BD94
:100B90008BED87BD2D986FEF77E582E06150704057
:100BA0008040E1F700C000009FEFA7E5B2E0915060
:100BB000A040B040E1F700C0000084E088BD80EFB5
:100BC00087BD2D9A84E040EF33EA28E79BE547BDD7
:100BD000CFEFD7E5E2E0C150D040E040E1F700C000
:100BE000000037BDFFEF07E512E0F1500040104074
:100BF000E1F700C0000027BD5FEF67E572E05150EC
:100C000060407040E1F700C0000097BDAFEFB7E56E
:100C1000C2E0A150B040C040E1F700C0000088BD74
:100C20008E5F8C30A1F62D9880E188BD80EF87BD66
:100C30002D9A80E140EF33EA28E790E647BDDFEFE9
:100C4000E7E5F2E0D150E040F040E1F700C00000FD
:100C500037BD0FEF17E552E0015010405040E1F76B
:100C600000C0000027BD6FEF77E5A2E06150704043
:100C7000A040E1F700C0000097BDBFEFC7E5D2E09C
:100C8000B150C040D040E1F700C0000088BD8250A4
:100C90008830A1F62D9884E088BD88E787BD2D9A1D
:100CA00080E190E034E028E7EFEFF7E502E0E15083
:100CB000F0400040E1F700C0000038BD27BD0197BB
:100CC00099F72D9880E188BD81E987BD2D9A80E153
:100CD00090E030E121E91FEF47E552E0115040403C
:100CE0005040E1F700C0000038BD27BD019799F7DB
:100CF0002D9884E088BD8AED87BD2D9A84E04AED69
:100D000036EB21E99DE647BD6FEF77E5A2E0615044
:100D10007040A040E1F700C0000037BDBFEFC7E55D
:100D2000D2E0B150C040D040E1F700C0000027BD84
:100D3000EFEFF7E502E0E150F0400040E1F700C0DE
:100D4000000097BD1FEF57E562E011505040604032
:100D5000E1F700C0000088BD8C5F8434A1F62D98B7
:100D600080E388BD8AED87BD2D9A80E290E06AED30
:100D700056EB41E93DE620E367BD7FEFA7E5B2E032
:100D80007150A040B040E1F700C0000057BDCFEF68
:100D9000D7E5E2E0C150D040E040E1F700C00000FC
:100DA00047BDFFEF07E512E0F15000401040E1F7CA
:100DB00000C0000037BD7FEFA7E5B2E07150A04052
:100DC000B040E1F700C0000028BD0197A9F62D98BA
:100DD00062E070E082E39FEF20E33AEF4EE255EFEE
:100DE00088BD97BD2D9ACFEFD7E5E2E0C150D04046
:100DF000E040E1F700C0000088BD97BDFFEF07E5C8
:100E000012E0F15000401040E1F700C0000028BDA2
:100E100037BDAFEFB7E5C2E0A150B040C040E1F749
:100E200000C0000048BD57BD2D98E9E0F0E0DFEFBD
:100E300007E512E0D15000401040E1F700C000008B
:100E40003197A9F788BD97BD2D9AAFEFB7E5C2E0FE
:100E5000A150B040C040E1F700C0000088BD97BD80
:100E6000DFEFE7E5F2E0D150E040F040E1F700C00D
:100E7000000028BD37BD0FEF17E5A2E0015010407C
:100E8000A040E1F700C0000048BD57BD2D98BFEF5E
:100E9000C7E5D2E0B150C040D040E1F700C000004B
:100EA00088BD97BD2D9AEFEFF7E502E0E150F040E5
:100EB0000040E1F700C0000088BD97BD1FEFA7E527
:100EC000B2E01150A040B040E1F700C0000028BDE2
:100ED00037BDCFEFD7E5E2E0C150D040E040E1F7C9
:100EE00000C0000048BD57BD2D98FFEF07E512E098
:100EF000F15000401040E1F700C00000AFEFB7E54F
:100F0000C2E0A150B040C040E1F700C00000DFEFF8
:100F1000E7E5F2E0D150E040F040E1F700C000002A
:100F20000FEF17E5A2E001501040A040E1F700C02C
:100F30000000BFEFC7E5D2E0B150C040D040E1F7BC
:100F400000C0000088BD97BD2D9AEFEFF7E502E0E5
:100F5000E150F0400040E1F700C0000088BD97BDBF
:100F60001FEFA7E5B2E01150A040B040E1F700C08C
:100F7000000028BD37BDCFEFD7E5E2E0C150D0403B
:100F8000E040E1F700C0000048BD57BD2D98E9E002
:100F9000F0E00FEF17E5A2E001501040A040E1F7AC
:100FA00000C000003197A9F788BD97BD2D9ABFEF0B
:100FB000C7E5D2E0B150C040D040E1F700C000002A
:100FC00088BD97BDEFEFF7E502E0E150F04000404B
:100FD000E1F700C0000028BD37BD1FEFA7E5B2E074
:100FE0001150A040B040E1F700C0000048BD57BD1F
:100FF0002D98CFEFD7E5E2E0C150D040E040E1F7D7
:1010000000C0000088BD97BD2D9AFFEF07E512E0F4
:10101000F15000401040E1F700C0000088BD97BDCE
:10102000AFEFB7E5C2E0A150B040C040E1F700C06B
:10103000000028BD37BDDFEFE7E5F2E0D150E0402A
:10104000F040E1F700C0000048BD57BD2D980FEFFC
:1010500017E5A2E001501040A040E1F700C00000F9
:10106000BFEFC7E5D2E0B150C040D040E1F700C0CB
:101070000000EFEFF7E502E0E150F0400040E1F75B
:1010800000C000001FEFA7E5B2E01150A040B04043
:10109000E1F700C00000CFEFD7E5E2E0C150D0405B
:1010A000E040E1F700C0000088BD97BD2D9AFFEF3A
:1010B00007E512E0F15000401040E1F700C00000E9
:1010C00088BD97BDAFEFB7E5C2E0A150B040C040CA
:1010D000E1F700C0000028BD37BDDFEFE7E5F2E033
:1010E000D150E040F040E1F700C0000048BD57BDDE
:1010F0002D98EDE0F0E00FEF17E5A2E00150104071
:10110000A040E1F700C000003197A9F761507109D4
:1011100009F066CE24E08AE9C82E82E098E8692EBC
:1011200093E053EA3BE0532EE3E1FBE141EA742E06
:10113000ACEA36EB64EB862E70EC472EBDECDB2E72
:10114000CDE4FC2ED4E49D2E61E51FE4A12EB6E58E
:101150004BE509E5B02E70E6372EC6E6EC2E28BD2D
:10116000C7BC2D9ACFEFD7E502E0C150D040004078
:10117000E1F700C000001FEF77E5C2E011507040BA
:10118000C040E1F700C00000DFEF07E512E0D150FA
:1011900000401040E1F700C000007FEFC7E5D2E05B
:1011A0007150C040D040E1F700C000000FEF17E5DC
:1011B00072E0015010407040E1F700C00000CFEF36
:1011C000D7E502E0C150D0400040E1F700C0000088
:1011D0002D981FEF77E5C2E011507040C040E1F755
:1011E00000C00000DFEF07E512E0D15000401040E2
:1011F000E1F700C0000088BD67BC2D9A7FEFC7E50E
:10120000D2E07150C040D040E1F700C000000FEFC5
:1012100017E572E0015010407040E1F700C0000097
:10122000CFEFD7E502E0C150D0400040E1F700C069
:1012300000001FEF77E5C2E011507040C040E1F7B9
:1012400000C000002D9898BD57BD2D9ADFEF07E52F
:1012500012E0D15000401040E1F700C0000098BDFE
:1012600057BD7FEFC7E5D2E07150C040D040E1F7F5
:1012700000C0000058BC57BD0FEF17E572E00150E9
:1012800010407040E1F700C00000E8BD57BDCFEF4F
:10129000D7E502E0C150D0400040E1F700C00000B7
:1012A000F8BD57BD2D9808E010E07FEFC7E5D2E00C
:1012B0007150C040D040E1F700C00000015011095A
:1012C000A1F788BD77BC2D9A0FEF17E572E00150AA
:1012D00010407040E1F700C00000CFEFD7E502E01A
:1012E000C150D0400040E1F700C000001FEF77E59B
:1012F000C2E011507040C040E1F700C00000DFEFD5
:1013000007E512E0D15000401040E1F700C00000B6
:101310002D987FEFC7E5D2E07150C040D040E1F793
:1013200000C000000FEF17E572E001501040704060
:10133000E1F700C00000CFEFD7E502E0C150D04098
:101340000040E1F700C000001FEF77E5C2E0115058
:101350007040C040E1F700C0000088BDA7BD2D9AD5
:10136000DFEF07E512E0D15000401040E1F700C088
:1013700000007FEFC7E5D2E07150C040D040E1F7F8
:1013800000C000002D980FEF17E572E001501040EB
:101390007040E1F700C00000CFEFD7E502E0C15098
:1013A000D0400040E1F700C0000098BDA7BD2D9AD5
:1013B0001FEF77E5C2E011507040C040E1F700C078
:1013C0000000DFEF07E512E0D15000401040E1F7E8
:1013D00000C000002D987FEFC7E5D2E07150C040FB
:1013E000D040E1F700C000000FEF17E572E00150B8
:1013F00010407040E1F700C0000028BDA7BD2D9A45
:10140000CFEFD7E502E0C150D0400040E1F700C087
:1014100000001FEF77E5C2E011507040C040E1F7D7
:1014200000C00000DFEF07E512E0D150004010409F
:10143000E1F700C000007FEFC7E5D2E07150C04087
:10144000D040E1F700C000000FEF17E572E0015057
:1014500010407040E1F700C00000CFEFD7E502E098
:10146000C150D0400040E1F700C000002D981FEFB0
:1014700077E5C2E011507040C040E1F700C00000C5
:10148000DFEF07E512E0D15000401040E1F700C067
:10149000000098BD37BD2D9A08E010E07FEFC7E54A
:1014A000D2E07150C040D040E1F700C000000150D0
:1014B0001109A1F72D9888BD37BD2D9A16EB0FEFB6
:1014C00077E5C2E001507040C040E1F700C0000085
:1014D00088BD17BD1450163991F72D9828BDA7BDAA
:1014E0002D9ADFEF07E512E0D15000401040E1F700
:1014F00000C000007FEFC7E5D2E07150C040D0408F
:10150000E1F700C000000FEF17E572E00150104056
:101510007040E1F700C00000CFEFD7E502E0C15016
:10152000D0400040E1F700C000001FEF77E5C2E0C7
:1015300011507040C040E1F700C00000DFEF07E548
:1015400012E0D15000401040E1F700C000002D989B
:101550007FEFC7E5D2E07150C040D040E1F700C056
:1015600000000FEF17E572E0015010407040E1F706
:1015700000C0000012E018BDC7BC2D9ACFEFD7E520
:1015800002E0C150D0400040E1F700C000001FEF72
:1015900077E5C2E011507040C040E1F700C00000A4
:1015A000DFEF07E512E0D15000401040E1F700C046
:1015B00000007FEFC7E5D2E07150C040D040E1F7B6
:1015C00000C000002D9898BD37BD2D9A0FEF17E58C
:1015D00072E0015010407040E1F700C0000098BD7B
:1015E00037BDCFEFD7E502E0C150D0400040E1F772
:1015F00000C0000058BC37BD1FEF77E5C2E01150B6
:101600007040C040E1F700C00000E8BD37BDDFEF2B
:1016100007E512E0D15000401040E1F700C00000A3
:10162000F8BD37BD2D9808E010E07FEFC7E5D2E0A8
:101630007150C040D040E1F700C0000001501109D6
:10164000A1F788BD87BC2D9A0FEF17E572E0015016
:1016500010407040E1F700C00000CFEFD7E502E096
:10166000C150D0400040E1F700C000001FEF77E517
:10167000C2E011507040C040E1F700C00000DFEF51
:1016800007E512E0D15000401040E1F700C0000033
:101690002D987FEFC7E5D2E07150C040D040E1F710
:1016A00000C000000FEF17E572E0015010407040DD
:1016B000E1F700C00000CFEFD7E502E0C150D04015
:1016C0000040E1F700C000001FEF77E5C2E01150D5
:1016D0007040C040E1F700C0000088BD47BC2D9AB3
:1016E000DFEF07E512E0D15000401040E1F700C005
:1016F00000007FEFC7E5D2E07150C040D040E1F775
:1017000000C000002D980FEF17E572E00150104067
:101710007040E1F700C00000CFEFD7E502E0C15014
:10172000D0400040E1F700C0000098BD47BC2D9AB2
:101730001FEF77E5C2E011507040C040E1F700C0F4
:101740000000DFEF07E512E0D15000401040E1F764
:1017500000C000002D987FEFC7E5D2E07150C04077
:10176000D040E1F700C000000FEF17E572E0015034
:1017700010407040E1F700C0000028BD47BC2D9A22
:10178000CFEFD7E502E0C150D0400040E1F700C004
:1017900000001FEF77E5C2E011507040C040E1F754
:1017A00000C00000DFEF07E512E0D150004010401C
:1017B000E1F700C000007FEFC7E5D2E07150C04004
:1017C000D040E1F700C000000FEF17E572E00150D4
:1017D00010407040E1F700C00000CFEFD7E502E015
:1017E000C150D0400040E1F700C000002D981FEF2D
:1017F00077E5C2E011507040C040E1F700C0000042
:10180000DFEF07E512E0D15000401040E1F700C0E3
:10181000000098BDD7BC2D9A08E010E07FEFC7E527
:10182000D2E07150C040D040E1F700C0000001504C
:101830001109A1F72D9888BDD7BC2D9A1DEC0FEF8B
:1018400077E5C2E001507040C040E1F700C0000001
:1018500088BD17BD185F1D3091F72D9828BDF7BCC6
:101860002D9ADFEF07E512E0D15000401040E1F77C
:1018700000C000007FEFC7E5D2E07150C040D0400B
:10188000E1F700C000000FEF17E572E001501040D3
:101890007040E1F700C00000CFEFD7E502E0C15093
:1018A000D0400040E1F700C000001FEF77E5C2E044
:1018B00011507040C040E1F700C00000DFEF07E5C5
:1018C00012E0D15000401040E1F700C000002D9818
:1018D0007FEFC7E5D2E07150C040D040E1F700C0D3
:1018E00000000FEF17E572E0015010407040E1F783
:1018F00000C0000012E018BD97BC2D9ACFEFD7E5CD
:1019000002E0C150D0400040E1F700C000001FEFEE
:1019100077E5C2E011507040C040E1F700C0000020
:10192000DFEF07E512E0D15000401040E1F700C0C2
:1019300000007FEFC7E5D2E07150C040D040E1F732
:1019400000C000002D9898BD67BD2D9A0FEF17E5D8
:1019500072E0015010407040E1F700C0000098BDF7
:1019600067BDCFEFD7E502E0C150D0400040E1F7BE
:1019700000C0000058BC67BD1FEF77E5C2E0115002
:101980007040C040E1F700C00000E8BD67BDDFEF78
:1019900007E512E0D15000401040E1F700C0000020
:1019A000F8BD67BD2D9808E010E07FEFC7E5D2E0F5
:1019B0007150C040D040E1F700C000000150110953
:1019C000A1F788BDA7BC2D9A0FEF17E572E0015073
:1019D00010407040E1F700C00000CFEFD7E502E013
:1019E000C150D0400040E1F700C000001FEF77E594
:1019F000C2E011507040C040E1F700C00000DFEFCE
:101A000007E512E0D15000401040E1F700C00000AF
:101A10002D987FEFC7E5D2E07150C040D040E1F78C
:101A200000C000000FEF17E572E001501040704059
:101A3000E1F700C00000CFEFD7E502E0C150D04091
:101A40000040E1F700C000001FEF77E5C2E0115051
:101A50007040C040E1F700C0000088BDB7BD2D9ABE
:101A6000DFEF07E512E0D15000401040E1F700C081
:101A700000007FEFC7E5D2E07150C040D040E1F7F1
:101A800000C000002D980FEF17E572E001501040E4
:101A90007040E1F700C00000CFEFD7E502E0C15091
:101AA000D0400040E1F700C0000098BDB7BD2D9ABE
:101AB0001FEF77E5C2E011507040C040E1F700C071
:101AC0000000DFEF07E512E0D15000401040E1F7E1
:101AD00000C000002D987FEFC7E5D2E07150C040F4
:101AE000D040E1F700C000000FEF17E572E00150B1
:101AF00010407040E1F700C0000028BDB7BD2D9A2E
:101B0000CFEFD7E502E0C150D0400040E1F700C080
:101B100000001FEF77E5C2E011507040C040E1F7D0
:101B200000C00000DFEF07E512E0D1500040104098
:101B3000E1F700C000007FEFC7E5D2E07150C04080
:101B4000D040E1F700C000000FEF17E572E0015050
:101B500010407040E1F700C00000CFEFD7E502E091
:101B6000C150D0400040E1F700C000002D981FEFA9
:101B700077E5C2E011507040C040E1F700C00000BE
:101B8000DFEF07E512E0D15000401040E1F700C060
:101B9000000098BD47BD2D9A08E010E07FEFC7E533
:101BA000D2E07150C040D040E1F700C000000150C9
:101BB0001109A1F72D9888BD47BD2D9A1BE50FEFA0
:101BC00077E5C2E001507040C040E1F700C000007E
:101BD00088BD17BD14501B3391F72D9828BDB7BD94
:101BE0002D9ADFEF07E512E0D15000401040E1F7F9
:101BF00000C000007FEFC7E5D2E07150C040D04088
:101C0000E1F700C000000FEF17E572E0015010404F
:101C10007040E1F700C00000CFEFD7E502E0C1500F
:101C2000D0400040E1F700C000001FEF77E5C2E0C0
:101C300011507040C040E1F700C00000DFEF07E541
:101C400012E0D15000401040E1F700C000002D9894
:101C50007FEFC7E5D2E07150C040D040E1F700C04F
:101C600000000FEF17E572E0015010407040E1F7FF
:101C700000C0000012E018BDF7BC2D9ACFEFD7E5E9
:101C800002E0C150D0400040E1F700C000001FEF6B
:101C900077E5C2E011507040C040E1F700C000009D
:101CA000DFEF07E512E0D15000401040E1F700C03F
:101CB00000007FEFC7E5D2E07150C040D040E1F7AF
:101CC00000C000002D9898BD47BD2D9A0FEF17E575
:101CD00072E0015010407040E1F700C0000098BD74
:101CE00047BDCFEFD7E502E0C150D0400040E1F75B
:101CF00000C0000058BC47BD1FEF77E5C2E011509F
:101D00007040C040E1F700C00000E8BD47BDDFEF14
:101D100007E512E0D15000401040E1F700C000009C
:101D2000F8BD47BD2D9808E010E07FEFC7E5D2E091
:101D30007150C040D040E1F700C0000001501109CF
:101D4000A1F788BDB7BC2D9A0FEF17E572E00150DF
:101D500010407040E1F700C00000CFEFD7E502E08F
:101D6000C150D0400040E1F700C000001FEF77E510
:101D7000C2E011507040C040E1F700C00000DFEF4A
:101D800007E512E0D15000401040E1F700C000002C
:101D90002D987FEFC7E5D2E07150C040D040E1F709
:101DA00000C000000FEF17E572E0015010407040D6
:101DB000E1F700C00000CFEFD7E502E0C150D0400E
:101DC0000040E1F700C000001FEF77E5C2E01150CE
:101DD0007040C040E1F700C0000088BD37BC2D9ABC
:101DE000DFEF07E512E0D15000401040E1F700C0FE
:101DF00000007FEFC7E5D2E07150C040D040E1F76E
:101E000000C000002D980FEF17E572E00150104060
:101E10007040E1F700C00000CFEFD7E502E0C1500D
:101E2000D0400040E1F700C0000098BD37BC2D9ABB
:101E30001FEF77E5C2E011507040C040E1F700C0ED
:101E40000000DFEF07E512E0D15000401040E1F75D
:101E500000C000002D987FEFC7E5D2E07150C04070
:101E6000D040E1F700C000000FEF17E572E001502D
:101E700010407040E1F700C0000028BD37BC2D9A2B
:101E8000CFEFD7E502E0C150D0400040E1F700C0FD
:101E900000001FEF77E5C2E011507040C040E1F74D
:101EA00000C00000DFEF07E512E0D1500040104015
:101EB000E1F700C000007FEFC7E5D2E07150C040FD
:101EC000D040E1F700C000000FEF17E572E00150CD
:101ED00010407040E1F700C00000CFEFD7E502E00E
:101EE000C150D0400040E1F700C000002D981FEF26
:101EF00077E5C2E011507040C040E1F700C000003B
:101F0000DFEF07E512E0D15000401040E1F700C0DC
:101F1000000098BDE7BC2D9A7FEFC7E5D2E0715075
:101F2000C040D040E1F700C000000FEF17E572E0BD
:101F3000015010407040E1F700C00000CFEFD7E53E
:101F400002E0C150D0400040E1F700C000001FEFA8
:101F500077E5C2E011507040C040E1F700C00000DA
:101F60002D9888BDE7BC2D9A16E6DFEF07E572E0F5
:101F7000D15000407040E1F700C0000088BD17BD9F
:0A1F80001C5F163991F72D98EAC88E
:00000001FF
