:100000000C9434000C9451000C9451000C94510049
:100010000C9451000C9451000C9451000C9451001C
:100020000C9451000C9451000C9451000C9451000C
:100030000C9451000C9451000C9451000C945100FC
:100040000C9451000C9451000C9451000C945100EC
:100050000C9451000C9451000C9451000C945100DC
:100060000C9451000C94510011241FBECFEFD8E026
:10007000DEBFCDBF12E0A0E0B1E0EEE7F3E002C0EA
:1000800005900D92A634B107D9F722E0A6E4B2E0BC
:1000900001C01D92A834B207E1F70E9453000C94EE
:1000A000BD010C94000083EA84BD8DE085BD559AA6
:1000B000259A2D9AE0914602F0914702E050FF4FB9
:1000C0008081813009F44BC0C0F0823009F480C0D7
:1000D000833009F045C1B185C085F3804281D78165
:1000E00016810581A481918198BDA7BD2D9A30E02C
:1000F00060E070E080E050E0DAC08381228194818A
:10010000318138BD97BD2D9A40E050E030E0421774
:10011000530764F46FEF72EA92E0615070409040D0
:10012000E1F700C000004F5F5F4FF1CF2D9820E056
:1001300030E090E02817390764F4BFEFE2EAF2E01C
:10014000B150E040F040E1F700C000002F5F3F4FAA
:10015000F1CF80914602909147020596FDC036810D
:10016000A581238142818481918198BD87BD2D9A8B
:1001700060E070E050E06417750784F4BFEFE2EAD6
:10018000F2E0B150E040F040E1F700C0000098BD5F
:1001900087BD6F5F7F4F9A0F830FEDCF2D9840E0A3
:1001A00050E0822F90E04817590764F42FEF32EAAD
:1001B00062E0215030406040E1F700C000004F5F36
:1001C0005F4FF1CF80914602909147020796C4C0DD
:1001D0008381228167817681A5819481318138BDB7
:1001E00097BD2D9A40E050E030E0421753075CF590
:1001F00097BDBFEFE2EAF2E0B150E040F040E1F736
:1002000000C00000A7BDBFEFE2EAF2E0B150E0405D
:10021000F040E1F700C0000077BDBFEFE2EAF2E096
:10022000B150E040F040E1F700C0000067BDBFEF13
:10023000E2EAF2E0B150E040F040E1F700C0000037
:100240004F5F5F4FD2CF2D9820E030E090E028172D
:1002500039073CF54FEF52EA62E0415050406040B0
:10026000E1F700C000007FEFB2EAE2E07150B04079
:10027000E040E1F700C00000FFEF42EA52E0F15039
:1002800040405040E1F700C000006FEF72EAB2E07A
:1002900061507040B040E1F700C000002F5F3F4F59
:1002A000D6CF8091460290914702089655C0EB2E1A
:1002B000E30E64177507BCF5FA2FF80FF7BDEFEFE3
:1002C000F2EA22E0E150F0402040E1F700C00000F7
:1002D000F02FF80FF7BDEFEFF2EA22E0E150F04027
:1002E0002040E1F700C00000F12FF80FF7BDEFEF5D
:1002F000F2EA22E0E150F0402040E1F700C00000C7
:10030000FD2FF80FF7BDEFEFF2EA22E0E150F040E9
:100310002040E1F700C0000098BD830F6F5F7F4F62
:100320009C0F3E2DC4CF2D9840E050E08F2D90E0E3
:100330004817590764F43FEF62EA72E031506040B9
:100340007040E1F700C000004F5F5F4FF1CF809138
:100350004602909147020A96909347028093460284
:1003600080914602909147028534914008F4A2CED4
:0E03700010924702109246029DCEF894FFCFE5
:10037E00000002022D001E040044001E03013A007C
:10038E001E04002D001E030122001E04002B001E61
:10039E00030133001E04003C001E030133001E0443
:1003AE000048001E03012B001E04002D001E030139
:1003BE0033001E04003A001E030144001E04005BBD
:1003CE00001E03014D001E040056001E03012D00E9
:1003DE001E040033001E03013A001E04003C001EE2
:1003EE00030133001E04002B001E030144001E04F3
:1003FE00005B001E03013C001E04005B001E030197
:10040E0066001E040074001E030144001E040078E2
:10041E00001E03013C000304003A000103015B00CF
:10042E000104008800000301780003040074000139
:10043E00040066000104005B000003015600030483
:10044E00004D0001030174000104005B0000030174
:10045E004D000304003A0001030133000104002D96
:10046E00000003014D000304004400010301560087
:10047E0001040044000003013A000304002B0001B4
:10048E00030144000104005600000301660003044A
:10049E0000780001030166000104004D0000030115
:1004AE002B000304002D000103017400010400560B
:0604BE0000000301330001
:00000001FF
